{"abi":[{"type":"constructor","inputs":[{"name":"_targetLogic","type":"address","internalType":"address"}],"stateMutability":"nonpayable"},{"type":"fallback","stateMutability":"nonpayable"},{"type":"function","name":"targetLogic","inputs":[],"outputs":[{"name":"","type":"address","internalType":"address"}],"stateMutability":"view"}],"bytecode":{"object":"0x60a060405234801561000f575f80fd5b5060405161028c38038061028c833981810160405281019061003191906100c9565b8073ffffffffffffffffffffffffffffffffffffffff1660808173ffffffffffffffffffffffffffffffffffffffff1681525050506100f4565b5f80fd5b5f73ffffffffffffffffffffffffffffffffffffffff82169050919050565b5f6100988261006f565b9050919050565b6100a88161008e565b81146100b2575f80fd5b50565b5f815190506100c38161009f565b92915050565b5f602082840312156100de576100dd61006b565b5b5f6100eb848285016100b5565b91505092915050565b60805161017b6101115f395f81816035015260cb015261017b5ff3fe608060405234801561000f575f80fd5b506004361061002d575f3560e01c8063e22ad60e146100ab5761002e565b5b5f3660605f7f000000000000000000000000000000000000000000000000000000000000000090506040515f3560f81c6001803603600183036100835763a9059cbb60e01b8452808260048601376004810190505b6001831461009357365f85373690505b5f808286885af43d5f803e806100a7573d5ffd5b3d5ff35b6100b36100c9565b6040516100c0919061012c565b60405180910390f35b7f000000000000000000000000000000000000000000000000000000000000000081565b5f73ffffffffffffffffffffffffffffffffffffffff82169050919050565b5f610116826100ed565b9050919050565b6101268161010c565b82525050565b5f60208201905061013f5f83018461011d565b9291505056fea26469706673582212201c8f1ac0591b5a5f911af7a286868cf0dbd178f1f47e699a58454c1fea45de0664736f6c634300081a0033","linkReferences":{}},"methodIdentifiers":{"targetLogic()":"e22ad60e"},"id":20}