{"abi":[{"type":"function","name":"balanceOf","inputs":[{"name":"","type":"address","internalType":"address"}],"outputs":[{"name":"","type":"uint256","internalType":"uint256"}],"stateMutability":"view"},{"type":"function","name":"mint","inputs":[{"name":"to","type":"address","internalType":"address"},{"name":"amount","type":"uint256","internalType":"uint256"}],"outputs":[],"stateMutability":"nonpayable"},{"type":"function","name":"transfer","inputs":[{"name":"to","type":"address","internalType":"address"},{"name":"amount","type":"uint256","internalType":"uint256"}],"outputs":[],"stateMutability":"nonpayable"}],"bytecode":{"object":"0x6080604052348015600e575f80fd5b506103a88061001c5f395ff3fe608060405234801561000f575f80fd5b506004361061003f575f3560e01c806340c10f191461004357806370a082311461005f578063a9059cbb1461008f575b5f80fd5b61005d6004803603810190610058919061024e565b6100ab565b005b6100796004803603810190610074919061028c565b610101565b60405161008691906102c6565b60405180910390f35b6100a960048036038101906100a4919061024e565b610115565b005b805f808473ffffffffffffffffffffffffffffffffffffffff1673ffffffffffffffffffffffffffffffffffffffff1681526020019081526020015f205f8282546100f6919061030c565b925050819055505050565b5f602052805f5260405f205f915090505481565b805f803373ffffffffffffffffffffffffffffffffffffffff1673ffffffffffffffffffffffffffffffffffffffff1681526020019081526020015f205f828254610160919061033f565b92505081905550805f808473ffffffffffffffffffffffffffffffffffffffff1673ffffffffffffffffffffffffffffffffffffffff1681526020019081526020015f205f8282546101b2919061030c565b925050819055505050565b5f80fd5b5f73ffffffffffffffffffffffffffffffffffffffff82169050919050565b5f6101ea826101c1565b9050919050565b6101fa816101e0565b8114610204575f80fd5b50565b5f81359050610215816101f1565b92915050565b5f819050919050565b61022d8161021b565b8114610237575f80fd5b50565b5f8135905061024881610224565b92915050565b5f8060408385031215610264576102636101bd565b5b5f61027185828601610207565b92505060206102828582860161023a565b9150509250929050565b5f602082840312156102a1576102a06101bd565b5b5f6102ae84828501610207565b91505092915050565b6102c08161021b565b82525050565b5f6020820190506102d95f8301846102b7565b92915050565b7f4e487b71000000000000000000000000000000000000000000000000000000005f52601160045260245ffd5b5f6103168261021b565b91506103218361021b565b9250828201905080821115610339576103386102df565b5b92915050565b5f6103498261021b565b91506103548361021b565b925082820390508181111561036c5761036b6102df565b5b9291505056fea264697066735822122071a4a8d944b39ccae80014a295cbb571ae07f5a82f79a8b560bfa3386f526e9264736f6c634300081a0033","linkReferences":{}},"methodIdentifiers":{"balanceOf(address)":"70a08231","mint(address,uint256)":"40c10f19","transfer(address,uint256)":"a9059cbb"},"id":0}